:1000000041EF05F00000000000EF00F000000000EC
:0A0010000000000000000000F3D71C
:04001C0000001200CE
:10002000080E0C6E230E0D6E0D2EFED70C2EFCD777
:020030001200BC
:0C003200100E0D6E0D2EFED70000120007
:10003E005CBE02D0819E01D0818E5CBC02D0819CC0
:10004E0001D0818C5CBA02D0819A01D0818A5CB8D1
:10005E0002D0819801D0818850B002D0818401D025
:10006E0081948186D4DF81965CB602D0819E01D0C8
:10007E00818E5CB402D0819C01D0818C5CB202D0A6
:10008E00819A01D0818A5CB002D0819801D081889A
:10009E0050B002D0818401D081948186B8DF8196E0
:0C00AE0050A002D0B6DF01D0BDDF120070
:1000BA000B1E0A1E091E081E082AD8B4092AD8B41B
:0800CA000A2AD8B40B2A120027
:1000D2000450085E0550D8A0053C095E0650D8A021
:1000E200063C0A5E0750D8A0073C0B5E0336070E9B
:1000F2000C6E0334083609360A360B36045003A058
:100102000ED0085E0550D8A0053C095E0650D8A066
:10011200063C0A5E0750D8A0073C0B5E0DD00826AD
:100122000550D8B0053C09260650D8B0063C0A2630
:100132000750D8B0073C0B2603360C2EDAD7023410
:10014200083609360A360B36045003A00ED0085E74
:100152000550D8A0053C095E0650D8A0063C0A5EB0
:100162000750D8A0073C0B5E0DD008260550D8B02A
:10017200053C09260650D8B0063C0A260750D8B0DE
:10018200073C0B260236070E0C6E0234083609367F
:100192000A360B36045002A00ED0085E0550D8A0D5
:1001A200053C095E0650D8A0063C0A5E0750D8A05E
:1001B200073C0B5E0DD008260550D8B0053C092639
:1001C2000650D8B0063C0A260750D8B0073C0B268A
:1001D20002360C2EDAD70134083609360A360B36C7
:1001E200045002A00ED0085E0550D8A0053C095E5E
:1001F2000650D8A0063C0A5E0750D8A0073C0B5E0A
:100202000DD008260550D8B0053C09260650D8B0B6
:10021200063C0A260750D8B0073C0B260136070ECB
:100222000C6E0134083609360A360B36045001A02A
:100232000ED0085E0550D8A0053C095E0650D8A035
:10024200063C0A5E0750D8A0073C0B5E0DD008267C
:100252000550D8B0053C09260650D8B0063C0A26FF
:100262000750D8B0073C0B2601360C2EDAD70034E3
:10027200083609360A360B36045001A00ED0085E45
:100282000550D8A0053C095E0650D8A0063C0A5E7F
:100292000750D8A0073C0B5E0DD008260550D8B0F9
:1002A200053C09260650D8B0063C0A260750D8B0AD
:1002B200073C0B260036070E0C6E00340836093652
:1002C2000A360B36045000A00ED0085E0550D8A0A6
:1002D200053C095E0650D8A0063C0A5E0750D8A02D
:1002E200073C0B5E0DD008260550D8B0053C092608
:1002F2000650D8B0063C0A260750D8B0073C0B2659
:1003020000360C2EDAD700B00ED004500826055065
:10031200D8B0053C09260650D8B0063C0A2607503C
:08032200D8B0073C0B261200C5
:0C032A0050905BC05CF086DE508012003A
:0A033600070E0D6E0D2EFED712000B
:100340000FD0800E566E19D0C00E566E16D0940E79
:10035000566E13D0D40E566E10D0800E566E0DD041
:100360005650010AEEE05650020AEEE05650030ADB
:10037000EEE05650040AEEE0F0D75704006E5650F7
:10038000002600C056F000C05CF059DE50905A6A5A
:100390005A505824E96E000E5920EA6EEE520BE0D6
:1003A0005A505824E96E000E5920EA6EEECF5BF0E9
:0A03B000BCDF5A2AEDD7508012007E
:1003BA00220E0C6E086A096A0A6A0B6A0C06D8B41D
:1003CA001FD0D8900B320A32093208320332023275
:1003DA0001320032D8A0F2D70C06D8B409D00450A2
:1003EA0008260550092206500A2207500B22EAD78E
:1003FA00045008260550092206500A2207500B22EB
:02040A001200DE
:10040C000450000A12E10550000A0FE10650000AE0
:10041C000CE10750000A09E1FF0E006EFF0E016EA1
:10042C00FF0E026E7F0E036E97D00C6A07BE0C2A6D
:10043C000D6A0B6A0A6A096A086A035002100110F5
:10044C000010D8B484D0035007180E6E0EBE0D1ECB
:10045C0007AE0BD0041E051E061E071E042AD8B4B8
:10046C00052AD8B4062AD8B4072A03AE0BD0001E2E
:10047C00011E021E031E002AD8B4012AD8B4022A77
:10048C00D8B4032A035007100E6E0EBE1CD01BDE10
:10049C000CBE36D00DAE5BD0001E011E021E031E1C
:1004AC00002AD8B4012AD8B4022AD8B4032A081EC8
:1004BC00091E0A1E0B1E082AD8B4092AD8B40A2A07
:1004CC00D8B40B2A44D007AE15D003BE0DD00350C0
:1004DC000B6E02500A6E0150096E0050086E036AD2
:1004EC00026A016A006AD6D7036A026A016A006A64
:1004FC00002A000C031E021E011E001E0C8EC7D704
:10050C00082AD8B4092AD8B40A2AD8B40B2A045019
:10051C00085CD8A4BFD70550095CD8A4BBD706503B
:10052C000A5CD8A4B7D707500B5CD8A4B3D70B6A16
:10053C000A6A096A086A002AD8B4012AD8B4022ABD
:10054C00D8B4032A03AEA6D70E6A0E88FF0C0E6A27
:0A055C000CA001D0ACDD000F12006E
:100566000B6A0A6A096A00500402F4CF09F0F3CF55
:1005760008F001500502F4CF0BF0F3CF0AF000505B
:100586000502F3500926F4500A22E86A0B220150AC
:100596000402F3500926F4500A22E86A0B2208C026
:1005A60000F009C001F00AC002F00BC003F012000F
:1005B600C26AC00EC212C18CC18E56C000F000368F
:1005C600009000360090003600900050C212C280A3
:1005D600AFDEC284C2A401D0FDD7C4CF01F0006A49
:0C05E600C3500012000E0112C29012005F
:1005F200FF0E346EFF0E356EFF0E366EFF0E376E37
:10060200FF0E486EFF0E496E000E4A6E000E4B6ED4
:10061200FF0E446EFF0E456E000E466E000E476ED4
:10062200FF0E406EFF0E416E000E426E000E436ED4
:10063200AC8A900EAB6E948E949C9EAA03D0AECFE1
:0606420000F0FBD71200DE
:08064800BE6ABD98BD9A1200C4
:100650000900F5CFE6FF0006FBE10106F9E1120013
:10066000939693949398939A939C939E8196819456
:10067000819E819C819A8198D3DCD2DCD1DC818AF5
:1006800081888186CBDC8196CBDC8186C7DC819634
:10069000C7DC8186C3DC8196C3DC81988186BEDCA1
:1006A0008196BEDC8186BADC8196819A818E8186B4
:1006B000B5DC8196B5DC819E81888186AFDC819630
:1006C00081988186ABDC8196ABDC8186A7DC819644
:1006D00081888186A3DC8196A3DC819881869EDC5B
:1006E0008196818E818C818A8188818697DC819632
:0606F00097DC50801200AF
:1006F600CB50010F006E016A000E012252C004F0B9
:10070600000E056E2DDF060E026E00C004F001C05D
:1007160005F0025005E005320432059EFF0FFAD7B8
:10072600040E016E04C000F0015004E00036009093
:10073600FF0FFBD7300E0014036E04C000F005C097
:1007460001F001320032019E01320032019E00C0EA
:0C075600BEFF0F0EBD160350BD121200B6
:10076200566A28DF00C038F001C039F0000E3A6E38
:100772003B6E38C000F039C001F03AC002F03BC015
:1007820003F0FF0E046E000E056E066E076E14DE99
:1007920000C03CF001C03DF002C03EF003C03FF09B
:1007A20000C038F001C039F002C03AF003C03BF09B
:1007B200FF0E046E030E056E000E066E076E25DE3A
:1007C20000C03CF001C03DF002C03EF003C03FF06B
:1007D20000C04CF001C04DF002C04EF003C04FF01B
:1007E200010E566E010E576E280E586E000E596E8F
:1007F200A6DDE80E046E030E056E000E066E076E91
:100802003CC000F03DC001F03EC002F03FC003F02A
:10081200FCDD00C051F0640E046E000E056E066E23
:10082200076E3CC000F03DC001F03EC002F03FC088
:1008320003F0EBDD0A0E046E000E056E066E076E07
:10084200E4DD08C000F009C001F00AC002F00BC0EC
:1008520003F000C051F00050300F5B6E65DD0A0EF0
:10086200046E000E056E066E076E3CC000F03DC0C1
:1008720001F03EC002F03FC003F0C7DD0A0E046E75
:10088200000E056E066E076EC0DD08C000F009C0DE
:1008920001F00AC002F00BC003F000C051F000509A
:1008A200300F5B6E41DD0A0E046E000E056E066EA1
:1008B200076E3CC000F03DC001F03EC002F03FC0F8
:1008C20003F0A3DD08C000F009C001F00AC002F085
:1008D2000BC003F000C051F00050300F5B6E24DDFE
:1008E200566A68DE00C038F001C039F0000E3A6E78
:1008F2003B6E38C000F039C001F03AC002F03BC094
:1009020003F0640E046E000E056E066E076E54DD73
:1009120000C03CF001C03DF002C03EF003C03FF019
:1009220000C038F001C039F002C03AF003C03BF019
:10093200FF0E046E030E056E000E066E076E65DD79
:1009420000C03CF001C03DF002C03EF003C03FF0E9
:10095200020E566E010E576E150E586E000E596E2F
:10096200EEDCE80E046E030E056E000E066E076ED8
:100972003CC000F03DC001F03EC002F03FC003F0B9
:1009820044DD00C051F0640E046E000E056E066E6A
:10099200076E3CC000F03DC001F03EC002F03FC017
:1009A20003F033DD0A0E046E000E056E066E076E4E
:1009B2002CDD08C000F009C001F00AC002F00BC033
:1009C20003F000C051F00050300F5B6EADDC0A0E38
:1009D200046E000E056E066E076E3CC000F03DC050
:1009E20001F03EC002F03FC003F00FDD0A0E046EBC
:1009F200000E056E066E076E08DD08C000F009C025
:100A020001F00AC002F00BC003F000C051F0005028
:100A1200300F5B6E89DC0A0E046E000E056E066EE8
:100A2200076E3CC000F03DC001F03EC002F03FC086
:100A320003F0EBDC08C000F009C001F00AC002F0CC
:100A42000BC003F000C051F00050300F5B6E6CDC45
:080A5200250E5B6E69DC120049
:100A5A000B0E0B6E260E0C6E5D0E0D6E0D2EFED756
:0E0A6A000C2EFCD70B2EFAD700000000120055
:0A0A78009494CA840C0EBD12120003
:100A82008BEC05F0820E0C6EDD0E0D6E0D2EFED778
:100A92000C2EFCD700000000410EC26EC00EC16ECB
:100AA2009480DDDD190EAF6EAC84A2DDD8DD190EA7
:100AB200AF6EAC849DDD010E566E010E576E1D0E9B
:100AC200586E000E596E3BDC956AFF0E836ECA901B
:100AD200CA92C70ECB6EB7DD83908392BDDFCBDFA8
:100AE200BEDDC00E526E06DE3BDE4CC052F002DEB0
:040AF200FBD7FFD758
:100B160010EE15F01F0E006E010E016EF60EF66E4B
:0E0B26000A0EF76E000EF86E28EC03F01200B7
:080AF6005350454544203D002A
:0B0AFE0057454C4C20434F4D45200055
:0C0B090050574D2056414C5545203D00F2
:020000040030CA
:0D000100220F0EFF0181FF0FC00FE00F4026
:00000001FF
